{
  "_format": "hh3-artifact-1",
  "contractName": "PrizeFactory",
  "sourceName": "src/PrizeFactory.sol",
  "abi": [
    {
      "inputs": [
        {
          "internalType": "address",
          "name": "paymentToken_",
          "type": "address"
        }
      ],
      "stateMutability": "nonpayable",
      "type": "constructor"
    },
    {
      "inputs": [],
      "name": "InvalidAddress",
      "type": "error"
    },
    {
      "inputs": [],
      "name": "NotOwner",
      "type": "error"
    },
    {
      "inputs": [],
      "name": "UnknownOffer",
      "type": "error"
    },
    {
      "anonymous": false,
      "inputs": [
        {
          "indexed": true,
          "internalType": "address",
          "name": "offer",
          "type": "address"
        }
      ],
      "name": "OfferActivated",
      "type": "event"
    },
    {
      "anonymous": false,
      "inputs": [
        {
          "indexed": true,
          "internalType": "address",
          "name": "offer",
          "type": "address"
        },
        {
          "indexed": true,
          "internalType": "address",
          "name": "participant",
          "type": "address"
        },
        {
          "indexed": false,
          "internalType": "string",
          "name": "hackathonName",
          "type": "string"
        },
        {
          "indexed": false,
          "internalType": "string",
          "name": "symbol",
          "type": "string"
        }
      ],
      "name": "OfferCreated",
      "type": "event"
    },
    {
      "anonymous": false,
      "inputs": [
        {
          "indexed": true,
          "internalType": "address",
          "name": "offer",
          "type": "address"
        }
      ],
      "name": "OfferRejected",
      "type": "event"
    },
    {
      "anonymous": false,
      "inputs": [
        {
          "indexed": true,
          "internalType": "address",
          "name": "previousOwner",
          "type": "address"
        },
        {
          "indexed": true,
          "internalType": "address",
          "name": "newOwner",
          "type": "address"
        }
      ],
      "name": "OwnershipTransferred",
      "type": "event"
    },
    {
      "inputs": [
        {
          "internalType": "address",
          "name": "offer",
          "type": "address"
        },
        {
          "internalType": "bytes32",
          "name": "validationHash",
          "type": "bytes32"
        }
      ],
      "name": "activateOffer",
      "outputs": [],
      "stateMutability": "nonpayable",
      "type": "function"
    },
    {
      "inputs": [
        {
          "internalType": "uint256",
          "name": "",
          "type": "uint256"
        }
      ],
      "name": "allOffers",
      "outputs": [
        {
          "internalType": "address",
          "name": "",
          "type": "address"
        }
      ],
      "stateMutability": "view",
      "type": "function"
    },
    {
      "inputs": [
        {
          "internalType": "string",
          "name": "hackathonName",
          "type": "string"
        },
        {
          "internalType": "string",
          "name": "symbol",
          "type": "string"
        },
        {
          "internalType": "bytes32",
          "name": "validationHash",
          "type": "bytes32"
        },
        {
          "internalType": "uint256",
          "name": "prizeAmount",
          "type": "uint256"
        },
        {
          "internalType": "uint256",
          "name": "discountBps",
          "type": "uint256"
        },
        {
          "internalType": "uint256",
          "name": "expectedPaymentDate",
          "type": "uint256"
        }
      ],
      "name": "createOffer",
      "outputs": [
        {
          "internalType": "address",
          "name": "offer",
          "type": "address"
        }
      ],
      "stateMutability": "nonpayable",
      "type": "function"
    },
    {
      "inputs": [
        {
          "internalType": "address",
          "name": "participant",
          "type": "address"
        }
      ],
      "name": "getParticipantOffers",
      "outputs": [
        {
          "internalType": "address[]",
          "name": "",
          "type": "address[]"
        }
      ],
      "stateMutability": "view",
      "type": "function"
    },
    {
      "inputs": [
        {
          "internalType": "address",
          "name": "",
          "type": "address"
        }
      ],
      "name": "isOffer",
      "outputs": [
        {
          "internalType": "bool",
          "name": "",
          "type": "bool"
        }
      ],
      "stateMutability": "view",
      "type": "function"
    },
    {
      "inputs": [
        {
          "internalType": "address",
          "name": "",
          "type": "address"
        },
        {
          "internalType": "uint256",
          "name": "",
          "type": "uint256"
        }
      ],
      "name": "offersByParticipant",
      "outputs": [
        {
          "internalType": "address",
          "name": "",
          "type": "address"
        }
      ],
      "stateMutability": "view",
      "type": "function"
    },
    {
      "inputs": [],
      "name": "offersCount",
      "outputs": [
        {
          "internalType": "uint256",
          "name": "",
          "type": "uint256"
        }
      ],
      "stateMutability": "view",
      "type": "function"
    },
    {
      "inputs": [],
      "name": "owner",
      "outputs": [
        {
          "internalType": "address",
          "name": "",
          "type": "address"
        }
      ],
      "stateMutability": "view",
      "type": "function"
    },
    {
      "inputs": [],
      "name": "paymentToken",
      "outputs": [
        {
          "internalType": "address",
          "name": "",
          "type": "address"
        }
      ],
      "stateMutability": "view",
      "type": "function"
    },
    {
      "inputs": [
        {
          "internalType": "address",
          "name": "offer",
          "type": "address"
        }
      ],
      "name": "rejectOffer",
      "outputs": [],
      "stateMutability": "nonpayable",
      "type": "function"
    },
    {
      "inputs": [
        {
          "internalType": "address",
          "name": "offer",
          "type": "address"
        },
        {
          "internalType": "uint256",
          "name": "amount",
          "type": "uint256"
        }
      ],
      "name": "settleOffer",
      "outputs": [],
      "stateMutability": "nonpayable",
      "type": "function"
    },
    {
      "inputs": [
        {
          "internalType": "address",
          "name": "newOwner",
          "type": "address"
        }
      ],
      "name": "transferOwnership",
      "outputs": [],
      "stateMutability": "nonpayable",
      "type": "function"
    }
  ],
  "bytecode": "0x60a060405234801561000f575f5ffd5b50604051612daf380380612daf83398101604081905261002e916100a6565b6001600160a01b0381166100555760405163e6c4247b60e01b815260040160405180910390fd5b5f80546001600160a01b0319163390811782556001600160a01b0383166080526040519091907f8be0079c531659141344cd1fd0a4f28419497f9722a3daafe3b4186f6b6457e0908290a3506100d3565b5f602082840312156100b6575f5ffd5b81516001600160a01b03811681146100cc575f5ffd5b9392505050565b608051612cbe6100f15f395f818160ea01526102e30152612cbe5ff3fe608060405234801561000f575f5ffd5b50600436106100b1575f3560e01c8063bf9767781161006e578063bf97677814610176578063c025c1fa14610189578063c227e8c61461019c578063ca7db240146101bc578063e794a1a3146101cf578063f2fde38b146101e2575f5ffd5b806306272a0b146100b55780633013ce29146100e5578063403eaabc1461010c5780638da5cb5b14610121578063ae01696014610133578063bec02acc14610165575b5f5ffd5b6100c86100c336600461079b565b6101f5565b6040516001600160a01b0390911681526020015b60405180910390f35b6100c87f000000000000000000000000000000000000000000000000000000000000000081565b61011f61011a3660046107cd565b61021d565b005b5f546100c8906001600160a01b031681565b6101556101413660046107f5565b60026020525f908152604090205460ff1681565b60405190151581526020016100dc565b6001546040519081526020016100dc565b6100c861018436600461085a565b6102de565b61011f6101973660046107f5565b61041b565b6101af6101aa3660046107f5565b610501565b6040516100dc91906108e7565b61011f6101ca3660046107cd565b610574565b6100c86101dd3660046107cd565b6106b0565b61011f6101f03660046107f5565b6106e4565b60018181548110610204575f80fd5b5f918252602090912001546001600160a01b0316905081565b5f546001600160a01b03163314610247576040516330cd747160e01b815260040160405180910390fd5b6001600160a01b0382165f9081526002602052604090205460ff1661027f57604051632962ad1760e11b815260040160405180910390fd5b6040516315afd40960e01b8152336004820152602481018290526001600160a01b038316906315afd409906044015f604051808303815f87803b1580156102c4575f5ffd5b505af11580156102d6573d5f5f3e3d5ffd5b505050505050565b5f5f337f00000000000000000000000000000000000000000000000000000000000000008b8b8b8b8b8b8b8b6040516103169061078e565b6103299a9998979695949392919061095a565b604051809103905ff080158015610342573d5f5f3e3d5ffd5b506001805480820182557fb10e2d527612073b26eecdfd717e6a320cf44b4afac2b0732d9fcbe2b7fa0cf60180546001600160a01b0384166001600160a01b031991821681179092555f828152600260209081526040808320805460ff191687179055338084526003835281842080549788018155845291909220909401805490921683179091555192945084935090917f2eff90d7a64619296597791997e4aca7c09f983270afd114be678e5b48ecb06d90610406908e908e908e908e906109c4565b60405180910390a35098975050505050505050565b5f546001600160a01b03163314610445576040516330cd747160e01b815260040160405180910390fd5b6001600160a01b0381165f9081526002602052604090205460ff1661047d57604051632962ad1760e11b815260040160405180910390fd5b806001600160a01b0316634dc415de6040518163ffffffff1660e01b81526004015f604051808303815f87803b1580156104b5575f5ffd5b505af11580156104c7573d5f5f3e3d5ffd5b50506040516001600160a01b03841692507fe0c1a48d34b111953dfef62f5393cdffdd14cb7eeabd62b10f481c12358d625691505f90a250565b6001600160a01b0381165f9081526003602090815260409182902080548351818402810184019094528084526060939283018282801561056857602002820191905f5260205f20905b81546001600160a01b0316815260019091019060200180831161054a575b50505050509050919050565b5f546001600160a01b0316331461059e576040516330cd747160e01b815260040160405180910390fd5b6001600160a01b0382165f9081526002602052604090205460ff166105d657604051632962ad1760e11b815260040160405180910390fd5b604051637dc9bc1f60e01b8152600481018290526001600160a01b03831690637dc9bc1f906024015f604051808303815f87803b158015610615575f5ffd5b505af1158015610627573d5f5f3e3d5ffd5b50505050816001600160a01b0316630f15f4c06040518163ffffffff1660e01b81526004015f604051808303815f87803b158015610663575f5ffd5b505af1158015610675573d5f5f3e3d5ffd5b50506040516001600160a01b03851692507ff5892e9ad5e3b81b66f38da7f1cb73adefbd9727caafcfc5bf6ad7f7f42f9cd991505f90a25050565b6003602052815f5260405f2081815481106106c9575f80fd5b5f918252602090912001546001600160a01b03169150829050565b5f546001600160a01b0316331461070e576040516330cd747160e01b815260040160405180910390fd5b6001600160a01b0381166107355760405163e6c4247b60e01b815260040160405180910390fd5b5f80546040516001600160a01b03808516939216917f8be0079c531659141344cd1fd0a4f28419497f9722a3daafe3b4186f6b6457e091a35f80546001600160a01b0319166001600160a01b0392909216919091179055565b612293806109f683390190565b5f602082840312156107ab575f5ffd5b5035919050565b80356001600160a01b03811681146107c8575f5ffd5b919050565b5f5f604083850312156107de575f5ffd5b6107e7836107b2565b946020939093013593505050565b5f60208284031215610805575f5ffd5b61080e826107b2565b9392505050565b5f5f83601f840112610825575f5ffd5b50813567ffffffffffffffff81111561083c575f5ffd5b602083019150836020828501011115610853575f5ffd5b9250929050565b5f5f5f5f5f5f5f5f60c0898b031215610871575f5ffd5b883567ffffffffffffffff811115610887575f5ffd5b6108938b828c01610815565b909950975050602089013567ffffffffffffffff8111156108b2575f5ffd5b6108be8b828c01610815565b999c989b5099604081013598606082013598506080820135975060a09091013595509350505050565b602080825282518282018190525f918401906040840190835b818110156109275783516001600160a01b0316835260209384019390920191600101610900565b509095945050505050565b81835281816020850137505f828201602090810191909152601f909101601f19169091010190565b6001600160a01b038b811682528a166020820152610100604082018190525f906109879083018a8c610932565b828103606084015261099a81898b610932565b9150508560808301528460a08301528360c08301528260e08301529b9a5050505050505050505050565b604081525f6109d7604083018688610932565b82810360208401526109ea818587610932565b97965050505050505056fe610160604052348015610010575f5ffd5b5060405161229338038061229383398101604081905261002f916102d6565b6001600160a01b038816158061004c57506001600160a01b038716155b1561006a5760405163e6c4247b60e01b815260040160405180910390fd5b825f0361008a5760405163162908e360e11b815260040160405180910390fd5b6101f482108061009b57506105dc82115b156100b9576040516304cbf51b60e51b815260040160405180910390fd5b336080526001600160a01b0388811660a052871660c05260016100dc8782610405565b5060026100e98682610405565b50600384905560e083905261010082905261271061010783826104d3565b61011190856104ec565b61011b9190610503565b610120526101408190526004805460ff19169055604051610140908790602001610522565b60405160208183030381529060405285886001600160a01b031663313ce5676040518163ffffffff1660e01b8152600401602060405180830381865afa15801561018c573d5f5f3e3d5ffd5b505050506040513d601f19601f820116820180604052508101906101b09190610552565b306040516101bd90610211565b6101ca94939291906105a7565b604051809103905ff0801580156101e3573d5f5f3e3d5ffd5b505f80546001600160a01b0319166001600160a01b0392909216919091179055506105f09650505050505050565b61087e80611a1583390190565b80516001600160a01b0381168114610234575f5ffd5b919050565b634e487b7160e01b5f52604160045260245ffd5b5f82601f83011261025c575f5ffd5b81516001600160401b0381111561027557610275610239565b604051601f8201601f19908116603f011681016001600160401b03811182821017156102a3576102a3610239565b6040528181528382016020018510156102ba575f5ffd5b8160208501602083015e5f918101602001919091529392505050565b5f5f5f5f5f5f5f5f610100898b0312156102ee575f5ffd5b6102f78961021e565b975061030560208a0161021e565b60408a01519097506001600160401b03811115610320575f5ffd5b61032c8b828c0161024d565b60608b015190975090506001600160401b03811115610349575f5ffd5b6103558b828c0161024d565b60808b015160a08c015160c08d015160e0909d01519b9e9a9d50989b919a909991975095509350505050565b600181811c9082168061039557607f821691505b6020821081036103b357634e487b7160e01b5f52602260045260245ffd5b50919050565b601f82111561040057805f5260205f20601f840160051c810160208510156103de5750805b601f840160051c820191505b818110156103fd575f81556001016103ea565b50505b505050565b81516001600160401b0381111561041e5761041e610239565b6104328161042c8454610381565b846103b9565b6020601f821160018114610464575f831561044d5750848201515b5f19600385901b1c1916600184901b1784556103fd565b5f84815260208120601f198516915b828110156104935787850151825560209485019460019092019101610473565b50848210156104b057868401515f19600387901b60f8161c191681555b50505050600190811b01905550565b634e487b7160e01b5f52601160045260245ffd5b818103818111156104e6576104e66104bf565b92915050565b80820281158282048414176104e6576104e66104bf565b5f8261051d57634e487b7160e01b5f52601260045260245ffd5b500490565b6d0283934bd32902932b1b2b4b83a160951b81525f82518060208501600e85015e5f9201600e0191825250919050565b5f60208284031215610562575f5ffd5b815160ff81168114610572575f5ffd5b9392505050565b5f81518084528060208401602086015e5f602082860101526020601f19601f83011685010191505092915050565b608081525f6105b96080830187610579565b82810360208401526105cb8187610579565b60ff95909516604084015250506001600160a01b039190911660609091015292915050565b60805160a05160c05160e05161010051610120516101405161133a6106db5f395f818161034f01526104a701525f818161032a0152818161046d01528181610c8001528181610d4b01528181610f2a01528181610f5b0152610fb001525f6103c301525f8181610308015281816103ea015281816106dd01528181610b2801528181610cac0152610d2701525f818161025301528181610697015281816109bf01528181610bd4015261101901525f81816102c30152818161103a015261107e01525f818161043d015281816104f9015281816105b1015281816108cb0152610a45015261133a5ff3fe608060405234801561000f575f5ffd5b50600436106101dc575f3560e01c80634e71d92d11610109578063b50a94761161009e578063d96a094a1161006e578063d96a094a1461048f578063ebc1e43d146104a2578063ec78e832146104c9578063ed1bd76c146104db575f5ffd5b8063b50a947614610430578063c45a015514610438578063cbd69fcb1461045f578063d411eccb14610468575f5ffd5b8063785fa627116100d9578063785fa627146103e55780637dc9bc1f1461040c578063820a5f501461041f5780638e3c4d9414610428575f5ffd5b80634e71d92d1461038e57806363c808f3146103965780636b60fb4c146103b55780636c1f5633146103be575f5ffd5b80633013ce291161017f57806337a6d42b1161014f57806337a6d42b146102be578063390947cf146102e55780634051ddac146102ee5780634dc415de14610386575f5ffd5b80633013ce291461024e57806331ba008c1461028d578063328f4f2c146102a057806332da0ccd146102b5575f5ffd5b806315afd409116101ba57806315afd4091461020f5780631c82cd3d14610222578063200d2ed21461022b578063249d39e914610245575f5ffd5b806308518044146101e05780630f15f4c0146101fc578063145da83614610206575b5f5ffd5b6101e960075481565b6040519081526020015b60405180910390f35b6102046104ee565b005b6101e960055481565b61020461021d3660046110fd565b6105a6565b6101e960035481565b6004546102389060ff1681565b6040516101f39190611159565b6101e961271081565b6102757f000000000000000000000000000000000000000000000000000000000000000081565b6040516001600160a01b0390911681526020016101f3565b6101e961029b366004611167565b61077b565b6102a8610834565b6040516101f39190611180565b6101e960085481565b6102757f000000000000000000000000000000000000000000000000000000000000000081565b6101e96105dc81565b61037260045460065460055460075460035460ff909416947f0000000000000000000000000000000000000000000000000000000000000000947f0000000000000000000000000000000000000000000000000000000000000000949392917f00000000000000000000000000000000000000000000000000000000000000009190565b6040516101f39897969594939291906111b5565b6102046108c0565b610204610978565b6101e96103a4366004611167565b600a6020525f908152604090205481565b6101e960095481565b6101e97f000000000000000000000000000000000000000000000000000000000000000081565b6101e97f000000000000000000000000000000000000000000000000000000000000000081565b61020461041a3660046111f9565b610a3a565b6101e960065481565b6102a8610abe565b6101e9601481565b6102757f000000000000000000000000000000000000000000000000000000000000000081565b6101e96101f481565b6101e97f000000000000000000000000000000000000000000000000000000000000000081565b61020461049d3660046111f9565b610acb565b6101e97f000000000000000000000000000000000000000000000000000000000000000081565b5f54610275906001600160a01b031681565b6101e96104e93660046111f9565b610d24565b336001600160a01b037f0000000000000000000000000000000000000000000000000000000000000000161461053757604051630636a15760e11b815260040160405180910390fd5b5f60045460ff16600581111561054f5761054f611125565b1461056d5760405163baf3f0f760e01b815260040160405180910390fd5b6004805460ff1916600117905560405130907f0cc43938d137e7efade6a531f663e78c1fc75257b0d65ffda2fdaf70cb49cdf9905f90a2565b336001600160a01b037f000000000000000000000000000000000000000000000000000000000000000016146105ef57604051630636a15760e11b815260040160405180910390fd5b600160045460ff16600581111561060857610608611125565b1415801561062d5750600360045460ff16600581111561062a5761062a611125565b14155b1561064b5760405163baf3f0f760e01b815260040160405180910390fd5b6001600160a01b0382166106725760405163e6c4247b60e01b815260040160405180910390fd5b805f036106925760405163162908e360e11b815260040160405180910390fd5b6106be7f0000000000000000000000000000000000000000000000000000000000000000833084610d80565b6106db576040516312171d8360e31b815260040160405180910390fd5b7f000000000000000000000000000000000000000000000000000000000000000061070e82670de0b6b3a7640000611224565b610718919061123b565b60095f828254610728919061125a565b90915550506004805460ff1916811790556040518181526001600160a01b038316907f7823e479a1a4ebe2418874847436f8a1680c5ee5b17f38bb59dbff28e1b455529060200160405180910390a25050565b6001600160a01b0381165f908152600a602052604081205460095482916107a19161126d565b5f546040516370a0823160e01b81526001600160a01b038681166004830152929350670de0b6b3a764000092849216906370a0823190602401602060405180830381865afa1580156107f5573d5f5f3e3d5ffd5b505050506040513d601f19601f820116820180604052508101906108199190611280565b6108239190611224565b61082d919061123b565b9392505050565b6001805461084190611297565b80601f016020809104026020016040519081016040528092919081815260200182805461086d90611297565b80156108b85780601f1061088f576101008083540402835291602001916108b8565b820191905f5260205f20905b81548152906001019060200180831161089b57829003601f168201915b505050505081565b336001600160a01b037f0000000000000000000000000000000000000000000000000000000000000000161461090957604051630636a15760e11b815260040160405180910390fd5b5f60045460ff16600581111561092157610921611125565b1461093f5760405163baf3f0f760e01b815260040160405180910390fd5b6004805460ff1916600217905560405130907faf77f8960cf590e245ec8b6d41c193a5dcacad8986ae4eb57ac9e5be7b6af031905f90a2565b5f6109823361077b565b9050805f036109a4576040516312d37ee560e31b815260040160405180910390fd5b600954335f818152600a60205260409020919091556109e5907f00000000000000000000000000000000000000000000000000000000000000009083610e58565b610a02576040516312171d8360e31b815260040160405180910390fd5b60405181815233907fd8138f8a3f377c5259ca548e70e4c2de94f129f5a11036a15b69513cba2b426a9060200160405180910390a250565b336001600160a01b037f00000000000000000000000000000000000000000000000000000000000000001614610a8357604051630636a15760e11b815260040160405180910390fd5b60038190556040518181527f975cb72a069c79281a4092a4a4ea5b624b480e029ff80cd4f53fe51198e53dda9060200160405180910390a150565b6002805461084190611297565b600160045460ff166005811115610ae457610ae4611125565b14610b025760405163baf3f0f760e01b815260040160405180910390fd5b805f03610b225760405163162908e360e11b815260040160405180910390fd5b5f6005547f0000000000000000000000000000000000000000000000000000000000000000610b51919061126d565b905080821115610b745760405163051c801d60e51b815260040160405180910390fd5b5f610b7e83610d24565b9050805f03610ba05760405163162908e360e11b815260040160405180910390fd5b8260055f828254610bb1919061125a565b925050819055508060065f828254610bc9919061125a565b90915550610bfb90507f0000000000000000000000000000000000000000000000000000000000000000333084610d80565b610c18576040516312171d8360e31b815260040160405180910390fd5b5f546040516340c10f1960e01b8152336004820152602481018590526001600160a01b03909116906340c10f19906044015f604051808303815f87803b158015610c60575f5ffd5b505af1158015610c72573d5f5f3e3d5ffd5b50505050610c7e610f27565b7f0000000000000000000000000000000000000000000000000000000000000000600654101580610cd057507f0000000000000000000000000000000000000000000000000000000000000000600554145b15610ce3576004805460ff191660031790555b604080518481526020810183905233917f39bd42f0c70297d139c890f7b72c50168b36c6d6750306c182fa0affecbe383d91015b60405180910390a2505050565b5f7f0000000000000000000000000000000000000000000000000000000000000000610d707f000000000000000000000000000000000000000000000000000000000000000084611224565b610d7a919061123b565b92915050565b604080516001600160a01b0385811660248301528481166044830152606480830185905283518084039091018152608490920183526020820180516001600160e01b03166323b872dd60e01b17905291515f928392839291891691610de591906112cf565b5f604051808303815f865af19150503d805f8114610e1e576040519150601f19603f3d011682016040523d82523d5f602084013e610e23565b606091505b5091509150818015610e4d575080511580610e4d575080806020019051810190610e4d91906112e5565b979650505050505050565b604080516001600160a01b038481166024830152604480830185905283518084039091018152606490920183526020820180516001600160e01b031663a9059cbb60e01b17905291515f928392839291881691610eb591906112cf565b5f604051808303815f865af19150503d805f8114610eee576040519150601f19603f3d011682016040523d82523d5f602084013e610ef3565b606091505b5091509150818015610f1d575080511580610f1d575080806020019051810190610f1d91906112e5565b9695505050505050565b5f7f000000000000000000000000000000000000000000000000000000000000000060065410610f5957506014610f96565b7f00000000000000000000000000000000000000000000000000000000000000006014600654610f899190611224565b610f93919061123b565b90505b6008548111610fa25750565b60088190555f6014610fd4837f0000000000000000000000000000000000000000000000000000000000000000611224565b610fde919061123b565b90505f60075482610fef919061126d565b9050805f03610ffd57505050565b8060075f82825461100e919061125a565b9091555061105f90507f00000000000000000000000000000000000000000000000000000000000000007f000000000000000000000000000000000000000000000000000000000000000083610e58565b61107c576040516312171d8360e31b815260040160405180910390fd5b7f00000000000000000000000000000000000000000000000000000000000000006001600160a01b03167f62ad1c726694c20860f1d9643be9c706d5957ec98697934c1f949b7aa3d638aa82600854604051610d17929190918252602082015260400190565b80356001600160a01b03811681146110f8575f5ffd5b919050565b5f5f6040838503121561110e575f5ffd5b611117836110e2565b946020939093013593505050565b634e487b7160e01b5f52602160045260245ffd5b6006811061115557634e487b7160e01b5f52602160045260245ffd5b9052565b60208101610d7a8284611139565b5f60208284031215611177575f5ffd5b61082d826110e2565b602081525f82518060208401528060208501604085015e5f604082850101526040601f19601f83011684010191505092915050565b61010081016111c4828b611139565b602082019890985260408101969096526060860194909452608085019290925260a084015260c083015260e090910152919050565b5f60208284031215611209575f5ffd5b5035919050565b634e487b7160e01b5f52601160045260245ffd5b8082028115828204841417610d7a57610d7a611210565b5f8261125557634e487b7160e01b5f52601260045260245ffd5b500490565b80820180821115610d7a57610d7a611210565b81810381811115610d7a57610d7a611210565b5f60208284031215611290575f5ffd5b5051919050565b600181811c908216806112ab57607f821691505b6020821081036112c957634e487b7160e01b5f52602260045260245ffd5b50919050565b5f82518060208501845e5f920191825250919050565b5f602082840312156112f5575f5ffd5b8151801515811461082d575f5ffdfea2646970667358221220af21bb95aadb644b97260a750f46d8c573559430706ab987cd62a591b13c3ef864736f6c634300081c003360c060405234801561000f575f5ffd5b5060405161087e38038061087e83398101604081905261002e91610100565b5f610039858261021e565b506001610046848261021e565b5060ff9091166080526001600160a01b031660a052506102d89050565b634e487b7160e01b5f52604160045260245ffd5b5f82601f830112610086575f5ffd5b81516001600160401b0381111561009f5761009f610063565b604051601f8201601f19908116603f011681016001600160401b03811182821017156100cd576100cd610063565b6040528181528382016020018510156100e4575f5ffd5b8160208501602083015e5f918101602001919091529392505050565b5f5f5f5f60808587031215610113575f5ffd5b84516001600160401b03811115610128575f5ffd5b61013487828801610077565b602087015190955090506001600160401b03811115610151575f5ffd5b61015d87828801610077565b935050604085015160ff81168114610173575f5ffd5b60608601519092506001600160a01b038116811461018f575f5ffd5b939692955090935050565b600181811c908216806101ae57607f821691505b6020821081036101cc57634e487b7160e01b5f52602260045260245ffd5b50919050565b601f82111561021957805f5260205f20601f840160051c810160208510156101f75750805b601f840160051c820191505b81811015610216575f8155600101610203565b50505b505050565b81516001600160401b0381111561023757610237610063565b61024b81610245845461019a565b846101d2565b6020601f82116001811461027d575f83156102665750848201515b5f19600385901b1c1916600184901b178455610216565b5f84815260208120601f198516915b828110156102ac578785015182556020948501946001909201910161028c565b50848210156102c957868401515f19600387901b60f8161c191681555b50505050600190811b01905550565b60805160a05161057e6103005f395f818161019d015261031d01525f61011a015261057e5ff3fe608060405234801561000f575f5ffd5b50600436106100a6575f3560e01c806340c10f191161006e57806340c10f191461014e57806370a082311461016357806395d89b4114610182578063a9059cbb1461018a578063c028df0614610198578063dd62ed3e146101d7575f5ffd5b806306fdde03146100aa578063095ea7b3146100c857806318160ddd146100eb57806323b872dd14610102578063313ce56714610115575b5f5ffd5b6100b2610201565b6040516100bf91906103ee565b60405180910390f35b6100db6100d636600461043e565b61028c565b60405190151581526020016100bf565b6100f460025481565b6040519081526020016100bf565b6100db610110366004610466565b6102f8565b61013c7f000000000000000000000000000000000000000000000000000000000000000081565b60405160ff90911681526020016100bf565b61016161015c36600461043e565b610312565b005b6100f46101713660046104a0565b60036020525f908152604090205481565b6100b26103e1565b6100db61011036600461043e565b6101bf7f000000000000000000000000000000000000000000000000000000000000000081565b6040516001600160a01b0390911681526020016100bf565b6100f46101e53660046104c0565b600460209081525f928352604080842090915290825290205481565b5f805461020d906104f1565b80601f0160208091040260200160405190810160405280929190818152602001828054610239906104f1565b80156102845780601f1061025b57610100808354040283529160200191610284565b820191905f5260205f20905b81548152906001019060200180831161026757829003601f168201915b505050505081565b335f8181526004602090815260408083206001600160a01b038716808552925280832085905551919290917f8c5be1e5ebec7d5bd14f71427d1e84f3dd0314c0f7b2291e5b200ac8c7c3b925906102e69086815260200190565b60405180910390a35060015b92915050565b5f604051638574adcf60e01b815260040160405180910390fd5b336001600160a01b037f0000000000000000000000000000000000000000000000000000000000000000161461035b57604051632f2790c760e21b815260040160405180910390fd5b8060025f82825461036c9190610529565b90915550506001600160a01b0382165f9081526003602052604081208054839290610398908490610529565b90915550506040518181526001600160a01b038316905f907fddf252ad1be2c89b69c2b068fc378daa952ba7f163c4a11628f55a4df523b3ef9060200160405180910390a35050565b6001805461020d906104f1565b602081525f82518060208401528060208501604085015e5f604082850101526040601f19601f83011684010191505092915050565b80356001600160a01b0381168114610439575f5ffd5b919050565b5f5f6040838503121561044f575f5ffd5b61045883610423565b946020939093013593505050565b5f5f5f60608486031215610478575f5ffd5b61048184610423565b925061048f60208501610423565b929592945050506040919091013590565b5f602082840312156104b0575f5ffd5b6104b982610423565b9392505050565b5f5f604083850312156104d1575f5ffd5b6104da83610423565b91506104e860208401610423565b90509250929050565b600181811c9082168061050557607f821691505b60208210810361052357634e487b7160e01b5f52602260045260245ffd5b50919050565b808201808211156102f257634e487b7160e01b5f52601160045260245ffdfea2646970667358221220a63d02ad5d64d7497a0e055043df43a5d72e7d0dfbf352014773c61fabec9cbe64736f6c634300081c0033a2646970667358221220c9f2c1b1dfeb85bc9cdbf3a1d5560e41ed6d34b5e6df1358f3c194eefd2e115e64736f6c634300081c0033",
  "linkReferences": {},
  "deployedLinkReferences": {},
  "immutableReferences": {
    "12": [
      {
        "length": 32,
        "start": 234
      },
      {
        "length": 32,
        "start": 739
      }
    ]
  },
  "inputSourceName": "project/src/PrizeFactory.sol",
  "buildInfoId": "solc-0_8_28-0034a4cca9515614775afcf419e3bdea9a6bdbde"
}